{
  "address": "0x6116271a3587494408FbD835340cCd8FAB81A630",
  "abi": [
    {
      "inputs": [
        {
          "internalType": "uint256",
          "name": "initialSupply",
          "type": "uint256"
        }
      ],
      "stateMutability": "nonpayable",
      "type": "constructor"
    },
    {
      "anonymous": false,
      "inputs": [
        {
          "indexed": true,
          "internalType": "address",
          "name": "owner",
          "type": "address"
        },
        {
          "indexed": true,
          "internalType": "address",
          "name": "spender",
          "type": "address"
        },
        {
          "indexed": false,
          "internalType": "uint256",
          "name": "value",
          "type": "uint256"
        }
      ],
      "name": "Approval",
      "type": "event"
    },
    {
      "anonymous": false,
      "inputs": [
        {
          "indexed": true,
          "internalType": "address",
          "name": "from",
          "type": "address"
        },
        {
          "indexed": true,
          "internalType": "address",
          "name": "to",
          "type": "address"
        },
        {
          "indexed": false,
          "internalType": "uint256",
          "name": "value",
          "type": "uint256"
        }
      ],
      "name": "Transfer",
      "type": "event"
    },
    {
      "inputs": [
        {
          "internalType": "address",
          "name": "owner",
          "type": "address"
        },
        {
          "internalType": "address",
          "name": "spender",
          "type": "address"
        }
      ],
      "name": "allowance",
      "outputs": [
        {
          "internalType": "uint256",
          "name": "",
          "type": "uint256"
        }
      ],
      "stateMutability": "view",
      "type": "function"
    },
    {
      "inputs": [
        {
          "internalType": "address",
          "name": "spender",
          "type": "address"
        },
        {
          "internalType": "uint256",
          "name": "value",
          "type": "uint256"
        }
      ],
      "name": "approve",
      "outputs": [
        {
          "internalType": "bool",
          "name": "",
          "type": "bool"
        }
      ],
      "stateMutability": "nonpayable",
      "type": "function"
    },
    {
      "inputs": [
        {
          "internalType": "address",
          "name": "account",
          "type": "address"
        }
      ],
      "name": "balanceOf",
      "outputs": [
        {
          "internalType": "uint256",
          "name": "",
          "type": "uint256"
        }
      ],
      "stateMutability": "view",
      "type": "function"
    },
    {
      "inputs": [
        {
          "internalType": "uint256",
          "name": "value",
          "type": "uint256"
        }
      ],
      "name": "burn",
      "outputs": [
        {
          "internalType": "bool",
          "name": "",
          "type": "bool"
        }
      ],
      "stateMutability": "nonpayable",
      "type": "function"
    },
    {
      "inputs": [],
      "name": "decimals",
      "outputs": [
        {
          "internalType": "uint8",
          "name": "",
          "type": "uint8"
        }
      ],
      "stateMutability": "view",
      "type": "function"
    },
    {
      "inputs": [
        {
          "internalType": "address",
          "name": "account",
          "type": "address"
        },
        {
          "internalType": "uint256",
          "name": "value",
          "type": "uint256"
        }
      ],
      "name": "mint",
      "outputs": [
        {
          "internalType": "bool",
          "name": "",
          "type": "bool"
        }
      ],
      "stateMutability": "nonpayable",
      "type": "function"
    },
    {
      "inputs": [],
      "name": "name",
      "outputs": [
        {
          "internalType": "string",
          "name": "",
          "type": "string"
        }
      ],
      "stateMutability": "view",
      "type": "function"
    },
    {
      "inputs": [],
      "name": "symbol",
      "outputs": [
        {
          "internalType": "string",
          "name": "",
          "type": "string"
        }
      ],
      "stateMutability": "view",
      "type": "function"
    },
    {
      "inputs": [],
      "name": "totalSupply",
      "outputs": [
        {
          "internalType": "uint256",
          "name": "",
          "type": "uint256"
        }
      ],
      "stateMutability": "view",
      "type": "function"
    },
    {
      "inputs": [
        {
          "internalType": "address",
          "name": "to",
          "type": "address"
        },
        {
          "internalType": "uint256",
          "name": "value",
          "type": "uint256"
        }
      ],
      "name": "transfer",
      "outputs": [
        {
          "internalType": "bool",
          "name": "",
          "type": "bool"
        }
      ],
      "stateMutability": "nonpayable",
      "type": "function"
    },
    {
      "inputs": [
        {
          "internalType": "address",
          "name": "from",
          "type": "address"
        },
        {
          "internalType": "address",
          "name": "to",
          "type": "address"
        },
        {
          "internalType": "uint256",
          "name": "value",
          "type": "uint256"
        }
      ],
      "name": "transferFrom",
      "outputs": [
        {
          "internalType": "bool",
          "name": "",
          "type": "bool"
        }
      ],
      "stateMutability": "nonpayable",
      "type": "function"
    }
  ],
  "transactionHash": "0x836afb1bbf1154454e8c56ff942daa79efbaeceeaa0cf04346685664c6c04491",
  "args": [
    "1000000000000000000000000"
  ],
  "numDeployments": 1,
  "solcInputHash": "b960b98698987195ad0d19eadb6eda6c",
  "bytecode": "0x60c0604052600860809081526726a52caa37b5b2b760c11b60a0526000906200002990826200024f565b5060408051808201909152600481526326a52c9960e11b60208201526001906200005490826200024f565b506002805460ff191660121790553480156200006f57600080fd5b5060405162000dfd38038062000dfd83398101604081905262000092916200031b565b6200009e3382620000a6565b505062000357565b60006001600160a01b038316620001175760405162461bcd60e51b815260206004820152602b60248201527f45524332303a20e993b8e980a0e79baee6a087e59cb0e59d80e4b88de883bde460448201526a017175d3376dcb3961cb3b60af1b606482015260840160405180910390fd5b81600360008282546200012b919062000335565b90915550506001600160a01b038316600090815260046020526040812080548492906200015a90849062000335565b90915550506040518281526001600160a01b038416906000907fddf252ad1be2c89b69c2b068fc378daa952ba7f163c4a11628f55a4df523b3ef9060200160405180910390a35060015b92915050565b634e487b7160e01b600052604160045260246000fd5b600181811c90821680620001d557607f821691505b602082108103620001f657634e487b7160e01b600052602260045260246000fd5b50919050565b601f8211156200024a57600081815260208120601f850160051c81016020861015620002255750805b601f850160051c820191505b81811015620002465782815560010162000231565b5050505b505050565b81516001600160401b038111156200026b576200026b620001aa565b62000283816200027c8454620001c0565b84620001fc565b602080601f831160018114620002bb5760008415620002a25750858301515b600019600386901b1c1916600185901b17855562000246565b600085815260208120601f198616915b82811015620002ec57888601518255948401946001909101908401620002cb565b50858210156200030b5787850151600019600388901b60f8161c191681555b5050505050600190811b01905550565b6000602082840312156200032e57600080fd5b5051919050565b80820180821115620001a457634e487b7160e01b600052601160045260246000fd5b610a9680620003676000396000f3fe608060405234801561001057600080fd5b50600436106100a95760003560e01c806340c10f191161007157806340c10f191461012957806342966c681461013c57806370a082311461014f57806395d89b4114610178578063a9059cbb14610180578063dd62ed3e1461019357600080fd5b806306fdde03146100ae578063095ea7b3146100cc57806318160ddd146100ef57806323b872dd14610101578063313ce56714610114575b600080fd5b6100b66101cc565b6040516100c39190610841565b60405180910390f35b6100df6100da3660046108ab565b61025e565b60405190151581526020016100c3565b6003545b6040519081526020016100c3565b6100df61010f3660046108d5565b610335565b60025460405160ff90911681526020016100c3565b6100df6101373660046108ab565b610589565b6100df61014a366004610911565b610665565b6100f361015d36600461092a565b6001600160a01b031660009081526004602052604090205490565b6100b661072f565b6100df61018e3660046108ab565b61073e565b6100f36101a136600461094c565b6001600160a01b03918216600090815260056020908152604080832093909416825291909152205490565b6060600080546101db9061097f565b80601f01602080910402602001604051908101604052809291908181526020018280546102079061097f565b80156102545780601f1061022957610100808354040283529160200191610254565b820191906000526020600020905b81548152906001019060200180831161023757829003601f168201915b5050505050905090565b60006001600160a01b0383166102cf5760405162461bcd60e51b815260206004820152602b60248201527f45524332303a20e68e88e69d83e79baee6a087e59cb0e59d80e4b88de883bde460448201526a017175d3376dcb3961cb3b60af1b60648201526084015b60405180910390fd5b3360008181526005602090815260408083206001600160a01b03881680855290835292819020869055518581529192917f8c5be1e5ebec7d5bd14f71427d1e84f3dd0314c0f7b2291e5b200ac8c7c3b92591015b60405180910390a35060015b92915050565b60006001600160a01b0384166103a15760405162461bcd60e51b815260206004820152602b60248201527f45524332303a20e8bdace8b4a6e69da5e6ba90e59cb0e59d80e4b88de883bde460448201526a017175d3376dcb3961cb3b60af1b60648201526084016102c6565b6001600160a01b0383166103c75760405162461bcd60e51b81526004016102c6906109b9565b6001600160a01b03841660009081526004602052604090205482111561042f5760405162461bcd60e51b815260206004820152601f60248201527f45524332303a20e8bdace8b4a6e98791e9a29de8b685e8bf87e4bd99e9a29d0060448201526064016102c6565b6001600160a01b03841660009081526005602090815260408083203384529091529020548211156104b05760405162461bcd60e51b815260206004820152602560248201527f45524332303a20e8bdace8b4a6e98791e9a29de8b685e8bf87e68e88e69d83e9604482015264514ef2dd5360d91b60648201526084016102c6565b6001600160a01b038416600090815260046020526040812080548492906104d8908490610a1a565b90915550506001600160a01b03831660009081526004602052604081208054849290610505908490610a2d565b90915550506001600160a01b03841660009081526005602090815260408083203384529091528120805484929061053d908490610a1a565b92505081905550826001600160a01b0316846001600160a01b0316600080516020610a418339815191528460405161057791815260200190565b60405180910390a35060019392505050565b60006001600160a01b0383166105f55760405162461bcd60e51b815260206004820152602b60248201527f45524332303a20e993b8e980a0e79baee6a087e59cb0e59d80e4b88de883bde460448201526a017175d3376dcb3961cb3b60af1b60648201526084016102c6565b81600360008282546106079190610a2d565b90915550506001600160a01b03831660009081526004602052604081208054849290610634908490610a2d565b90915550506040518281526001600160a01b03841690600090600080516020610a4183398151915290602001610323565b336000908152600460205260408120548211156106c45760405162461bcd60e51b815260206004820152601f60248201527f45524332303a20e99480e6af81e98791e9a29de8b685e8bf87e4bd99e9a29d0060448201526064016102c6565b33600090815260046020526040812080548492906106e3908490610a1a565b9250508190555081600360008282546106fc9190610a1a565b90915550506040518281526000903390600080516020610a418339815191529060200160405180910390a3506001919050565b6060600180546101db9061097f565b60006001600160a01b0383166107665760405162461bcd60e51b81526004016102c6906109b9565b336000908152600460205260409020548211156107c55760405162461bcd60e51b815260206004820152601f60248201527f45524332303a20e8bdace8b4a6e98791e9a29de8b685e8bf87e4bd99e9a29d0060448201526064016102c6565b33600090815260046020526040812080548492906107e4908490610a1a565b90915550506001600160a01b03831660009081526004602052604081208054849290610811908490610a2d565b90915550506040518281526001600160a01b038416903390600080516020610a4183398151915290602001610323565b600060208083528351808285015260005b8181101561086e57858101830151858201604001528201610852565b506000604082860101526040601f19601f8301168501019250505092915050565b80356001600160a01b03811681146108a657600080fd5b919050565b600080604083850312156108be57600080fd5b6108c78361088f565b946020939093013593505050565b6000806000606084860312156108ea57600080fd5b6108f38461088f565b92506109016020850161088f565b9150604084013590509250925092565b60006020828403121561092357600080fd5b5035919050565b60006020828403121561093c57600080fd5b6109458261088f565b9392505050565b6000806040838503121561095f57600080fd5b6109688361088f565b91506109766020840161088f565b90509250929050565b600181811c9082168061099357607f821691505b6020821081036109b357634e487b7160e01b600052602260045260246000fd5b50919050565b6020808252602b908201527f45524332303a20e8bdace8b4a6e79baee6a087e59cb0e59d80e4b88de883bde460408201526a017175d3376dcb3961cb3b60af1b606082015260800190565b634e487b7160e01b600052601160045260246000fd5b8181038181111561032f5761032f610a04565b8082018082111561032f5761032f610a0456feddf252ad1be2c89b69c2b068fc378daa952ba7f163c4a11628f55a4df523b3efa26469706673582212208c99c08d13cfd82463fd6b6f8299cd6ec261abbac2bea6889fecad0426c0b7e564736f6c63430008140033",
  "devdoc": {
    "kind": "dev",
    "methods": {},
    "version": 1
  },
  "userdoc": {
    "kind": "user",
    "methods": {},
    "version": 1
  },
  "storageLayout": {
    "storage": [
      {
        "astId": 4,
        "contract": "contracts/MockERC20.sol:ERC20Test",
        "label": "_name",
        "offset": 0,
        "slot": "0",
        "type": "t_string_storage"
      },
      {
        "astId": 7,
        "contract": "contracts/MockERC20.sol:ERC20Test",
        "label": "_symbol",
        "offset": 0,
        "slot": "1",
        "type": "t_string_storage"
      },
      {
        "astId": 10,
        "contract": "contracts/MockERC20.sol:ERC20Test",
        "label": "_decimals",
        "offset": 0,
        "slot": "2",
        "type": "t_uint8"
      },
      {
        "astId": 12,
        "contract": "contracts/MockERC20.sol:ERC20Test",
        "label": "_totalSupply",
        "offset": 0,
        "slot": "3",
        "type": "t_uint256"
      },
      {
        "astId": 16,
        "contract": "contracts/MockERC20.sol:ERC20Test",
        "label": "_balances",
        "offset": 0,
        "slot": "4",
        "type": "t_mapping(t_address,t_uint256)"
      },
      {
        "astId": 22,
        "contract": "contracts/MockERC20.sol:ERC20Test",
        "label": "_allowances",
        "offset": 0,
        "slot": "5",
        "type": "t_mapping(t_address,t_mapping(t_address,t_uint256))"
      }
    ],
    "types": {
      "t_address": {
        "encoding": "inplace",
        "label": "address",
        "numberOfBytes": "20"
      },
      "t_mapping(t_address,t_mapping(t_address,t_uint256))": {
        "encoding": "mapping",
        "key": "t_address",
        "label": "mapping(address => mapping(address => uint256))",
        "numberOfBytes": "32",
        "value": "t_mapping(t_address,t_uint256)"
      },
      "t_mapping(t_address,t_uint256)": {
        "encoding": "mapping",
        "key": "t_address",
        "label": "mapping(address => uint256)",
        "numberOfBytes": "32",
        "value": "t_uint256"
      },
      "t_string_storage": {
        "encoding": "bytes",
        "label": "string",
        "numberOfBytes": "32"
      },
      "t_uint256": {
        "encoding": "inplace",
        "label": "uint256",
        "numberOfBytes": "32"
      },
      "t_uint8": {
        "encoding": "inplace",
        "label": "uint8",
        "numberOfBytes": "1"
      }
    }
  }
}